:100000000C9412070C943A070C943A070C943A0794
:100010000C943A070C943A070C943A070C948F1AF4
:100020000C943A070C943A070C943A070C943A074C
:100030000C943A070C943A070C943A070C943A073C
:100040000C94431B0C943A070C94111B0C94EB1A60
:100050000C943A070C943A070C943A070C943A071C
:100060000C948D1B0C943A07000000000500010061
:1000700000020D0602F4040005040601F407000A5C
:100080000C0A00F5160009100A01F32800100D10E3
:1000900001F442000B0D0C01F4540002040401F4BD
:1000A000550004110601F45E0004110601F4670016
:1000B00005050701F46B0006080B03F97100020443
:1000C000050200720004010601FC73000201050133
:1000D000007400050D0500F47D00080D0A01F48A86
:1000E00000040D0A03F49100090D0A01F4A00008B0
:1000F0000D0A01F4AD00070D0A02F4B900090D0A5A
:1001000001F4C800090D0A01F4D700080D0A00F433
:10011000E400090D0A01F4F300080D0A01F40001DE
:10012000020A0501F70301030C0501F8080109099A
:100130000B01F8130109040B01FB180109090B015C
:10014000F82301090D0A01F4320111101201F454CF
:10015000010C0D0C00F468010B0D0C01F47A010B7D
:100160000D0D01F48C010B0D0D01F49E01090D0B19
:1001700001F4AD01080D0B01F4BA010C0D0E01F4F0
:10018000CE010B0D0D01F4E001020D0502F4E401B6
:10019000070D0A01F4F0010B0D0C01F40202080D29
:1001A0000A01F40F020D0D0F01F425020B0D0D01D4
:1001B000F437020D0D0E01F44D020A0D0C01F45E30
:1001C000020D0E0E01F475020C0D0D01F489020AE8
:1001D0000D0C01F49A02090D0B01F4A9020B0D0D8F
:1001E00001F4BB020B0D0C00F4CD02110D1100F453
:1001F000E9020C0D0C00F4FD020C0D0C00F41103CF
:100200000A0D0B01F4220303110501F42903050D66
:100210000500F4320303110500F439030707080150
:10022000F440030A010A0003420304030500F444F6
:1002300003090A0A01F75003090D0A01F45F0308D4
:100240000A0901F76903080D0A01F47603080A0A8E
:1002500001F78003040D0501F48703080E0A01F776
:100260009503080D0A01F4A203020D0401F4A6038C
:1002700004110400F4AF03090D0901F4BE03020DDB
:100280000401F4C2030D0A0F01F7D303080A0A019F
:10029000F7DD03080A0A01F7E703090D0A01F7F67B
:1002A00003080D0A01F70304050A0601F70A04080A
:1002B0000A0901F71404040C0501F51A04080A0AD6
:1002C00001F72404090A0900F730040D0A0D00F7AC
:1002D0004104080A0900F74B04090E0900F75B0402
:1002E000070A0901F7640404110601F46D04021100
:1002F0000402F4720404110601F47B0407030901EB
:10030000F9FFFFF8C0DEF72009864191FF1304C30F
:1003100020C8FF89826190101F14DA3D1E83407847
:100320001708F47A3533F040203810EC20C620C688
:1003300040C6406C803900013C02770263046304CC
:1003400077083C0E0660CC1981E0180F0336C2D83E
:10035000730631E3C4FE13266CCCCCC46623108C28
:100360004663333332664C80257EA50030C33F3070
:10037000C30CD6F0C00844211084421108003C662A
:1003800042C3C3C3C3C3C3C342663C113F33333309
:1003900033303E31B07830181C1C1C181810080778
:1003A000F83C66C3C303061C0703C3C3663C0C18B2
:1003B0007162C9A346FE183060C07F20100808078C
:1003C000F38C030180F06C63E01E3198780C06F327
:1003D0008D83C1E0D06C63E0FF030206040C0818B3
:1003E00018181030303E31B0783C1B18F8C6C1E008
:1003F000F06C63E03C66C2C3C3C3673B0303C266E1
:100400003CC00030C0000064A00081C78E0C078093
:10041000700E0180FF80001FF000700E01C01838C0
:1004200071C080003E31B0783018183818180C00B0
:1004300000018003F0060E06018600661DBB31CF69
:1004400018C79863CC31E611B399CCF786000180C8
:100450000070400FE00600F00F00901981981083A3
:100460000C3FC204606606C030FF183303606C0D99
:10047000833FC606C0780F01E06FF81F861981A080
:100480003C0180300600C0680D831861F0FF18330E
:1004900003603C0780F01E03C0780F0360CFF0FFBD
:1004A000E030180C0603FD80C06030180FF8FFC064
:1004B000C0C0C0C0FEC0C0C0C0C0C00F830E606658
:1004C00003C00C00C1FC03C0360360730F0F10C0E3
:1004D000780F01E03C0780FFFE03C0780F01E03C8D
:1004E00006FFFFFFC0060C183060C183078F1E2770
:1004F00080C0D8330C630CC1B83F0730C318630603
:10050000606C0CC0C0C0C0C0C0C0C0C0C0C0C0FF14
:10051000E03F01FC1FE0FD05EC6F637913CD9E6C9D
:10052000F1478E3C7180E07C0FC1E83D8798F11E59
:1005300033C3786F07E07C0E0F8183180CC06C0109
:10054000E00F007803C01B01980C60C0F800FF307A
:100550006C0F03C0F06FF300C0300C0300C0000F3D
:100560008183180CC06C01E00F007803C01B019858
:100570006C60C0FB0008FF8C0EC06C06C06C0CFFEA
:100580008C0EC06C06C06C06C0703F186C0F03C0A8
:100590001E01F00E00F03C0D863F00FF8603018037
:1005A000C06030180C06030180C0C0780F01E03C29
:1005B0000780F01E03C0780F01B061F0C06C0D81A0
:1005C00010630C610460CC1901603C070060C181BC
:1005D00030E19870CC286626211330C8986C4C14F2
:1005E000340A1A0707030380818060630C30C198C6
:1005F0000F00E00600F019019830C60E6060C036AA
:100600000630C30C1981D80F006006006006006038
:100610000600FFC060300C060301C06030180603FE
:1006200000FFC0FB6DB6DB6DB6E084108410841053
:10063000841080EDB6DB6DB6DBE03060A244D8A15B
:1006400080FFC0C6307E71B0C060F3DB0D86C73D51
:10065000C0C060301BCE360F0783C1E0F07C6DE078
:100660003C66C3C0C0C0C0C3663C0303033B67C352
:10067000C3C3C3C3C3673B3C66C3C3FFC0C0C36639
:100680003C366F66666666603B67C3C3C3C3C3C35D
:10069000673B0303C67CC0C0C0DEE3C3C3C3C3C3A0
:1006A000C3C3C3C3FFFFC03003333333333333E03B
:1006B000C06030184C466361F0EC6231986C30FFDA
:1006C000FFFFC0DEF71CF0C7863C31E18F0C78637A
:1006D000C31E18C0DEE3C3C3C3C3C3C3C3C33C66E6
:1006E000C3C3C3C3C3C3663CDE71B0783C1E0F07EF
:1006F00083E36F30180C003B67C3C3C3C3C3C36736
:100700003B030303DF318C6318C6003EE3C0C0E047
:100710003C07C3E37E66F666666667C3C3C3C3C3AE
:10072000C3C3C3C77BC1A098CC4221B0D0281C0C46
:1007300000C61E3891C4CA66D316D0A6871C38C01E
:10074000C6004362361C181C3C266243C12198CC6B
:100750004261B0D0381C0C0603010300FE0C30C10E
:10076000861820C1FC3666666ECE66666630FFFF70
:10077000FFFFC0C666666737666666C061243800DC
:10078000000000003E5B4F5B3E3E6B4F6B3E1C3EED
:100790007C3E1C183C7E3C181C577D571C1C5E7F01
:1007A0005E1C00183C1800FFE7C3E7FF0018241880
:1007B00000FFE7DBE7FF30483A060E2629792926B5
:1007C000407F050507407F05253F5A3CE73C5A7F9F
:1007D0003E1C1C08081C1C3E7F14227F22145F5FF5
:1007E000005F5F06097F017F006689956A6060602F
:1007F000606094A2FFA29408047E040810207E206A
:100800001008082A1C08081C2A08081E10101010BE
:100810000C1E0C1E0C30383E3830060E3E0E060004
:100820000000000000005F00000007000700147FC8
:10083000147F14242A7F2A1223130864623649562F
:1008400020500008070300001C2241000041221C28
:10085000002A1C7F1C2A08083E080800807030000F
:100860000808080808000060600020100804023E24
:100870005149453E00427F40007249494946214165
:10088000494D331814127F1027454545393C4A49D4
:100890004931412111090736494949364649492913
:1008A0001E00001400000040340000000814224123
:1008B0001414141414004122140802015909063EAC
:1008C000415D594E7C1211127C7F494949363E41A7
:1008D0004141227F4141413E7F494949417F0909C8
:1008E00009013E414151737F0808087F00417F4163
:1008F000002040413F017F081422417F404040409A
:100900007F021C027F7F0408107F3E4141413E7FF1
:10091000090909063E4151215E7F091929462649E8
:1009200049493203017F01033F4040403F1F2040BF
:10093000201F3F4038403F631408146303047804C9
:10094000036159494D43007F414141020408102091
:10095000004141417F040201020440404040400008
:100960000307080020545478407F28444438384412
:10097000444428384444287F385454541800087E8E
:10098000090218A4A49C787F0804047800447D40E0
:10099000002040403D007F1028440000417F40007F
:1009A0007C047804787C080404783844444438FC97
:1009B0001824241818242418FC7C0804040848541B
:1009C00054542404043F44243C4040207C1C2040D8
:1009D000201C3C4030403C44281028444C909090CF
:1009E0007C4464544C440008364100000077000009
:1009F000004136080002010204023C2623263C1E68
:100A0000A1A161123A4040207A38545455592155D9
:100A100055794122545478422155547840205455F8
:100A200079400C1E52721239555555593954545447
:100A30005939555454580000457C410002457D42C7
:100A40000001457C407D1211127DF0282528F07CA4
:100A5000545545002054547C547C0A097F4932493E
:100A60004949323A4444443A324A4848303A41418A
:100A7000217A3A42402078009DA0A07D3D4242422A
:100A80003D3D4040403D3C24FF2424487E49436690
:100A90002B2FFC2F2BFF0929F620C0887E0903206D
:100AA000545479410000447D413048484A3238402E
:100AB00040227A007A0A0A727D0D19317D26292991
:100AC0002F28262929292630484D40203808080893
:100AD0000808080808382F10C8ACBA2F102834FAB4
:100AE00000007B000008142A142222142A1408553E
:100AF00000550055AA55AA55AAFF55FF55FF0000FD
:100B000000FF00101010FF00141414FF001010FF5D
:100B100000FF1010F010F0141414FC001414F7006F
:100B2000FF0000FF00FF1414F404FC141417101F3E
:100B300010101F101F1414141F00101010F00000CC
:100B400000001F101010101F10101010F0100000E7
:100B500000FF101010101010101010FF10000000F7
:100B6000FF140000FF00FF00001F10170000FC042E
:100B7000F414141710171414F404F40000FF00F711
:100B800014141414141414F700F714141417141074
:100B9000101F101F141414F4141010F010F00000A3
:100BA0001F101F0000001F14000000FC140000F0C4
:100BB00010F01010FF10FF141414FF141010101F69
:100BC00000000000F010FFFFFFFFFFF0F0F0F0F07A
:100BD000FFFFFF0000000000FFFF0F0F0F0F0F3897
:100BE00044443844FC4A4A4A347E02020606027EE5
:100BF000027E0263554941633844443C04407E20F0
:100C00001E2006027E020299A5E7A5991C2A492A00
:100C10001C4C7201724C304A4D4D3030487848308F
:100C2000BC625A463D3E494949007E0101017E2A87
:100C30002A2A2A2A44445F444440514A44404044BA
:100C40004A51400000FF0103E080FF000008086BEC
:100C50006B083612362436060F090F0600001818E6
:100C60000000001010003040FF0101001F01011EB4
:100C700000191D1712003C3C3C3C00000000000025
:100C800000000023002600290000000000240027A7
:100C9000002A0001036800207E160000000000000A
:100CA00000000000000000000000000000007FFEC7
:100CB000000000078001E000000C00002000001888
:100CC00000001800003000000400002000000400B4
:100CD000002000000400006000000200004000004E
:100CE0000200004000000100004000000100004040
:100CF00000000100007FE0000100007FFFFFFF0017
:100D0000007FFFFFFF0000D7FFFFE10001BFFC1FD6
:100D1000FA8001BFF1CFFA80013FC237F78001EFBF
:100D20009C01E7C001E07006068001E0C003068078
:100D300001FF8001FF8001F800001DC003700080EA
:100D40000C6005B007F0089009101FF809D00B904F
:100D50001F7C03F00FC0FC0F07900D43C0030790EA
:100D600005640000CF1007FC000026100180000081
:100D70001020010000000E40018007F0018000807B
:100D800007C8008000800BE80080008797E9E080BA
:100D90000087DFEFA080004BFFFFA080006BDFFB30
:100DA000A300002497E82400001E1FC02C000007A9
:100DB000F81FF00000000FF800000000000800021B
:100DC0000100000304070000000000000000000014
:100DD00000001C003FF03C003C00FF007FFF7FFF55
:100DE000FF003C003C001FF01C000000000001025E
:100DF00004081020408001020408102001020408A9
:100E0000102000000000250028002B00040404042A
:100E100004040404020202020202030303030303A4
:100E20000200AC1C11241FBECFEFD8E0DEBFCDBF47
:100E300015E0A0E0B1E0EAEAF7E502C005900D9206
:100E4000AE3DB107D9F728E0AEEDB5E001C01D9287
:100E5000AC35B207E1F717E0C2E1D7E004C0219753
:100E6000FE010E94C82BC131D107C9F70E94231D82
:100E70000C94D32B0C94000028E030E040E8E09183
:100E80005208F091530850819091590890959523FC
:100E90009083E0915008F091510890915808582F94
:100EA000542389F05081952B9083E0915208F09162
:100EB0005308908150915908952B90834695215065
:100EC0003109E9F60895508190959523EDCF089565
:100ED00008950895AF92BF92CF92DF92EF92FF9262
:100EE0000F931F93CF93DF936C017B018B01040F52
:100EF000151FEB015E01AE18BF08C017D10759F0EE
:100F00006991D601ED91FC910190F081E02DC6012F
:100F10000995892B79F7C501DF91CF911F910F9129
:100F2000FF90EF90DF90CF90BF90AF900895FC01BD
:100F3000538D448D252F30E0842F90E0821B930B3E
:100F4000541710F0CF96089501970895FC01918DE4
:100F5000828D981761F0A28DAE0FBF2FB11D5D96E7
:100F60008C91928D9F5F9F73928F90E008958FEF89
:100F70009FEF0895FC01918D828D981731F0828D3D
:100F8000E80FF11D858D90E008958FEF9FEF089594
:100F9000FC01918D228D892F90E0805C9F4F821BF8
:100FA00091098F73992708958BED96E00E94C807E9
:100FB00021E0892B09F420E0822F089580E090E061
:100FC000892B29F00E94D40781110C940000089508
:100FD000FC01A48DA80FB92FB11DA35ABF4F2C91AE
:100FE000848D90E001968F739927848FA689B789A5
:100FF0002C93A089B1898C91837080648C93938D9C
:10100000848D981306C00288F389E02D80818F7D3E
:1010100080830895EF92FF920F931F93CF93DF93F6
:10102000EC0181E0888F9B8D8C8D98131AC0E88924
:10103000F989808185FF15C09FB7F894EE89FF89F3
:101040006083E889F98980818370806480839FBF91
:1010500081E090E0DF91CF911F910F91FF90EF9091
:101060000895F62E0B8D10E00F5F1F4F0F731127A1
:10107000E02E8C8D8E110CC00FB607FCFACFE889DC
:10108000F989808185FFF5CFCE010E94E807F1CF75
:10109000EB8DEC0FFD2FF11DE35AFF4FF0829FB750
:1010A000F8940B8FEA89FB8980818062CFCFCF9340
:1010B000DF93EC01888D8823B9F0AA89BB89E88980
:1010C000F9898C9185FD03C0808186FD0DC00FB626
:1010D00007FCF7CF8C9185FFF2CF808185FFEDCFA4
:1010E000CE010E94E807E9CFDF91CF9108958330C8
:1010F00081F028F4813099F08230A9F0089587308A
:10110000A9F08830C9F08430B1F4809180008F7DDF
:1011100003C0809180008F7780938000089584B50C
:101120008F7784BD089584B58F7DFBCF8091B0000B
:101130008F778093B00008958091B0008F7DF9CFB4
:10114000CF93DF93282F30E0F901E654F24F8491DA
:10115000F901E251F24FD491F901E45FF14FC491EA
:10116000CC23A1F081110E947708EC2FF0E0EE0F64
:10117000FF1FE158F34FA591B491EC91ED2381E06D
:1011800090E009F480E0DF91CF91089580E090E055
:10119000FACF1F93CF93DF93282F30E0F901E65465
:1011A000F24F8491F901E251F24FD491F901E45FD9
:1011B000F14FC491CC23A9F0162F81110E9477081A
:1011C000EC2FF0E0EE0FFF1FEE5FF14FA591B49111
:1011D0008FB7F894EC91111108C0D095DE23DC9301
:1011E0008FBFDF91CF911F910895DE2BF8CF9091A3
:1011F0001B0589130BC0E0E2FEE0E4919FEF9093A2
:101200001B05E13049F028F0E23061F060E00C9419
:10121000C90810926E00FACF90916F009D7F909355
:101220006F00F4CF909170009D7F9093700091E0DB
:101230009093B0009091B100987F94609093B1002A
:101240001092B300E3CFCF93DF9390E0FC01E25123
:10125000F24F2491845F914FFC0184918823C9F05F
:1012600090E0880F991FFC01E757F34FA591B491C7
:10127000FC01EE5FF14FC591D49161110DC09FB794
:10128000F8948C91209582238C938881282328833D
:101290009FBFDF91CF910895623051F49FB7F894CA
:1012A0003C91822F809583238C93E8812E2BEFCF66
:1012B0008FB7F894EC912E2B2C938FBFEACF4F92DF
:1012C0005F926F927F928F929F92AF92BF92CF92D6
:1012D000DF92EF92FF920F931F93CF93DF9300D093
:1012E00000D01F92CDB7DEB78C012A013B0180915F
:1012F0001B058D30C9F08F3F09F47FC00F900F9010
:101300000F900F900F90DF91CF911F910F91FF9051
:10131000EF90DF90CF90BF90AF909F908F907F9095
:101320006F905F904F900895E0E2FEE084918D838E
:1013300087FDE4CF61E08DE00E9423098D81882341
:1013400021F09D81923009F05CC14801B12CA12CA3
:1013500060E072E18AE790E0A50198010E9401290E
:1013600029833A834B835C8369017A0181E0C81A3F
:10137000D108E108F1089FEFC916D104E104F10496
:1013800009F00CF413C160E472E48FE090E0A50171
:1013900098010E94012969017A0181E0C81AD108E7
:1013A000E108F1089D81923009F098C08FEFC816CE
:1013B000D104E104F10409F00CF4DDC160E970ED41
:1013C00083E090E0A50198010E94012969017A015A
:1013D00091E0C91AD108E108F1088FEFC816D104CD
:1013E000E104F10411F00CF0A3C183E09091B1008D
:1013F000987F892B8093B100E1C08DE080931B051D
:10140000E0E2FEE094919D839F3F09F477CF913015
:1014100029F158F0923009F43FC08D8187FD6ECFDD
:1014200061E08DE00E9423098CCF14BC15BC84B50B
:10143000826084BD85B5816085BDE9E1FEE0E4910F
:10144000F0E0EE0FFF1FEE5FF14F85919491EBEF0F
:10145000FDE0E491E093CE061D826CCF10928000F7
:10146000109281008091810088608093810080913A
:101470008100816080938100E9E1FEE0E491F0E089
:10148000EE0FFF1FEE5FF14F85919491EBEFFDE0C2
:10149000E491E093CD064ECF1092B0001092B100CF
:1014A0008091B00082608093B0008091B100816033
:1014B0008093B100E9E1FEE0E491F0E0EE0FFF1F60
:1014C000EE5FF14F859194919093CC068093CB067B
:1014D000EBEFFDE0E491E093CA062CCF9FEFC91635
:1014E000D104E104F10409F00CF489C068E478EE59
:1014F00081E090E0A50198010E94012969017A012B
:1015000081E0C81AD108E108F1089D81992309F406
:1015100028C19FEFC916D104E104F10409F00CF4CD
:101520001EC162E17AE780E090E0A50194010E948B
:10153000012969017A0181E0C81AD108E108F1089E
:101540009D81992309F4EBC08FEFC816D104E10403
:10155000F10411F008F0BFC086E048CF64E274EFF8
:1015600080E090E0A50194010E94012969017A01BF
:1015700081E0C81AD108E108F10885E09FEFC9169B
:10158000D104E104F10409F008F430CF62E17AE714
:1015900080E090E0A50194010E94012969017A018F
:1015A00091E0C91AD108E108F108CECF81E09D8110
:1015B00091111CCF95B5987F892B85BD2FEF3FEFFB
:1015C000A901411451046104710409F043C09D81D3
:1015D000913009F45EC0923009F46DC091118ECE45
:1015E000C7BC2093D7063093D8064093D9065093B2
:1015F000DA0680916E00826080936E007FCE82E07A
:10160000D6CFB12CA12C60E072E18AE790E0A50171
:1016100098010E94012969017A0181E0C81AD10864
:10162000E108F108C114D10491E0E906F10404F5E0
:1016300091E08D81813011F680918100887F892B26
:10164000809381002FEF3FEFA90141145104610401
:101650007104F9F0D801AA0FBB1FA30192010E94E7
:10166000202928EE33E040E050E00E943329AFCF3C
:1016700068E478EE81E090E0A50198010E940129DC
:1016800069017A0181E0C81AD108E108F10893E004
:10169000D0CFD0928900C09288002093D306309397
:1016A000D4064093D5065093D60680916F00826091
:1016B00080936F0023CEC092B3002093CF06309367
:1016C000D0064093D1065093D2068091700082607C
:1016D0008093700013CEC980DA80EB80FC809AE0A2
:1016E000F594E794D794C7949A95D1F791E0C91AE5
:1016F000D108E108F10887E079CEC980DA80EB8073
:10170000FC808AE0F594E794D794C7948A95D1F742
:1017100091E0C91AD108E108F10885E04BCF8FEFBD
:10172000C816D104E104F10409F038F784E042CF8F
:1017300068E478EE81E090E0A50198010E9401291B
:1017400069017A0191E0C91AD108E108F1088FEF27
:10175000C816D104E104F10411F00CF0FFCE84E0CE
:1017600045CE8FEFC816D104E104F10411F00CF05E
:10177000D8CE83E01FCF82E039CE3FB7F894809176
:10178000430690914406A0914506B091460626B5C1
:10179000A89B05C02F3F19F00196A11DB11D3FBFA9
:1017A000BA2FA92F982F8827BC01CD01620F711D78
:1017B000811D911D42E0660F771F881F991F4A9572
:1017C000D1F708958F929F92AF92BF92CF92DF92FE
:1017D000EF92FF926B017C010E94BD0B4B015C01FB
:1017E000C114D104E104F104B9F00E94BD0B6819E1
:1017F00079098A099B09683E73408105910580F348
:1018000021E0C21AD108E108F10888EE880E83E0D1
:10181000981EA11CB11CE4CFFF90EF90DF90CF90F9
:10182000BF90AF909F908F900895CF93DF93EC017E
:101830008885998568177907F4F457FD1CC08A8557
:101840009B8548175907BCF48D898230B9F08330E5
:1018500029F1813041F48C819D81841B950BAB0172
:10186000BC01615071092130310509F1E8F12230E4
:10187000310509F456C0DF91CF910895EC81FD81C7
:10188000E61BF70BBF01615071098E819F81FC013E
:10189000E41BF50BAF0141505109E5CF8E819F81CB
:1018A000861B970BBA01AC0141505109DCCFFA01FC
:1018B00057FD3796A3E0F595E795AA95E1F7F695DC
:1018C000FE2FEE27F795E795E60FF71FE55EFE4F33
:1018D0004770552721E030E001C0220F4A95EAF712
:1018E0008081822B8083C7CFFA0157FD379623E092
:1018F000F595E7952A95E1F7F695FE2FEE27F795F2
:10190000E795E60FF71FE55EFE4F4770552781E02C
:1019100090E001C0880F4A95EAF78095908189236D
:10192000E1CFFA0157FD379683E0F595E7958A9563
:10193000E1F7F695FE2FEE27F795E795E60FF71FEF
:10194000E55EFE4F4770552721E030E001C0220FD1
:101950004A95EAF780818227C5CF77FF0C94150C52
:1019600008950F931F93CF93DF93EC018D898230FD
:1019700009F453C0833009F4ACC0813009F05CC075
:10198000EC81FD81E41BF50BAF01421B530B77FD8E
:101990003FC08E819F8168177907D4F557FF04C037
:1019A000240F351F50E040E08C819D81FA01E20F49
:1019B000F31F8E179F071CF49C01241B350B121676
:1019C000130634F5FB0177FD3796A3E0F595E7950F
:1019D000AA95E1F7F695FE2FEE27F795E795E40F28
:1019E000F51FE55EFE4F6770772781E090E001C04C
:1019F000880F6A95EAF7482F0130110509F472C083
:101A000008F47CC02E0F3F1F0230110509F483C07B
:101A1000DF91CF911F910F910895AC81BD81CD01D0
:101A2000861B970BBC0161507109EE81FF81E41B9D
:101A3000F50BAF01421B530B77FDEACF8C819D81E3
:101A4000681779072CF757FF04C0240F351F50E0A3
:101A500040E08E819F81FA01E20FF31F8E179F07EE
:101A60001CF49C01241B350B121613068CF6922FC6
:101A7000A42FA695A695A69580E8A89FD00111242D
:101A8000A60FB71FA55EBE4F477009F457C058E0B8
:101A9000541B452F652F70E0FB01E85DFA4F8081F4
:101AA000251708F0B0C0621B71092FEF30E002C0AB
:101AB000359527956A95E2F7822301301105A9F142
:101AC00008F464C00230110509F0A2CF2C918227DE
:101AD0002EC0AE81BF81CD01861B970BBC0161502A
:101AE000710955CF2E0F3F1FE217F30709F490CF6E
:101AF0008191DF011197842B8C93F6CF80952E0F67
:101B00003F1FE217F30709F483CF9191DF0111978B
:101B100098239C93F6CFE217F30709F479CF8191CC
:101B2000DF01119784278C93F6CF2C91822B8C9315
:101B3000941708F46DCF941BA058BF4F983008F449
:101B400047C00230110531F5FD01892F2081209514
:101B50002083E058FF4F88508830C0F728EF290FC6
:101B600026952695269530E02F5F3F4F3695322FEC
:101B7000222737952795A20FB31F977009F448CFF6
:101B8000E92FF0E0E05EFA4F808132C080952C9121
:101B90008223CDCF81E00130110509F080E08195ED
:101BA000FD01292F8083E058FF4F28502830D0F7BF
:101BB00028EF290F26952695269530E02F5F3F4F79
:101BC0003695322F222737952795A20FB31F97708E
:101BD000992309F41DCFE92FF0E0E05EFA4F8081F0
:101BE0000130110541F058F00230110509F010CF15
:101BF0009C91892702C09C91892B8C9309CF809559
:101C00009C918923FACF0130110509F48ECF08F495
:101C1000BDCF0230110509F459CF8DCF0F931F931B
:101C2000CF93DF93EC018D89823009F45EC083305D
:101C300009F4B5C0813009F067C0AC81BD81CD0128
:101C4000841B950BAC014150510957FD49C08C8153
:101C50009D81481759070CF043C077FF04C0260F39
:101C6000371F70E060E08E819F81FB01E20FF31F60
:101C70008E179F071CF49C01261B370B12161306A8
:101C80007CF5922FA62FA695A695A69580E8A89FED
:101C9000D0011124A40FB51FA55EBE4F677009F4D3
:101CA0008FC048E0461B642F70E0FB01E85DFA4FEF
:101CB0008081241708F002C1621B71092FEF30E008
:101CC00002C0359527956A95E2F782230130110508
:101CD00009F46DC008F49CC00230110509F4F8C085
:101CE000DF91CF911F910F910895EC81FD81E61B4B
:101CF000F70BAE81BF81CD01841B950BAC01415028
:101D00005109BF01621B730B57FDEACF8E819F8182
:101D1000481759072CF777FF04C0260F371F70E0CC
:101D200060E08C819D81FB01E20FF31F8E179F07FE
:101D30001CF49C01261B370B121613068CF6FA01B5
:101D400057FD379693E0F595E7959A95E1F7F69567
:101D5000FE2FEE27F795E795E60FF71FE55EFE4F9E
:101D60004770552781E090E001C0880F4A95EAF757
:101D7000482F0130110509F488C008F492C02E0FD5
:101D80003F1F0230110509F0ABCFE217F30709F44A
:101D9000A7CF8191DF01119784278C93F6CFEE8135
:101DA000FF81E61BF70BBF01621B730B4ECF2C911B
:101DB000822B8C93941708F493CF941BA058BF4F99
:101DC000983008F447C00230110531F5FD01892F24
:101DD000208120952083E058FF4F88508830C0F73D
:101DE00028EF290F26952695269530E02F5F3F4F47
:101DF0003695322F222737952795A20FB31F97705C
:101E000009F46ECFE92FF0E0E05EFA4F808132C036
:101E100080952C918223CDCF81E00130110509F00E
:101E200080E08195FD01292F8083E058FF4F2850E5
:101E30002830D0F728EF290F26952695269530E0F3
:101E40002F5F3F4F3695322F222737952795A20FC8
:101E5000B31F9770992309F443CFE92FF0E0E05EB8
:101E6000FA4F80810130110541F058F00230110520
:101E700009F036CF9C91892702C09C91892B8C93C5
:101E80002FCF80959C918923FACF2E0F3F1FE21709
:101E9000F30709F425CF8191DF011197842B8C93EF
:101EA000F6CF80952E0F3F1F2E173F0709F418CF4E
:101EB0009191DF01119798239C93F6CF0130110582
:101EC00009F475CF08F4A4CF0230110509F075CFDD
:101ED0002C9182276ECF0895FC016370658B8481FD
:101EE000958126813781613039F0633029F09187FF
:101EF0008087338722870895318720879387828759
:101F000008952F923F924F925F926F927F928F929D
:101F10009F92AF92BF92CF92DF92EF92FF920F9378
:101F20001F93CF93DF93CDB7DEB769970FB6F894C1
:101F3000DEBF0FBECDBF998F888F5B011A01D22EF5
:101F40001F830E833701C982DC0158962D913C9185
:101F500059972115310509F004C118968D919C916E
:101F60001997681779070CF0C0C11A968D919C914A
:101F70001B97481759070CF0B8C18C2C912CFB010A
:101F800026E0C29EE00DF11D1124F987E8871E1698
:101F90001F060CF0AAC1A40193E0440F551F9A95A7
:101FA000E1F75D874C87CA01820D931D181619064B
:101FB0000CF09BC157968C91811104C05FEA5D15AE
:101FC00008F4D394A88DB98DED91FC9111970284FA
:101FD000F385E02DCD010995F5013596F98BE88B58
:101FE000BB82AA8225018FE797E08A199B099C0191
:101FF00045E0D49E200D311D11243B8B2A8BEA89AC
:10200000FB89E40DF51D24913D822C82D12CC12C3D
:10201000622F70E07F876E87E88DF98DA081B18196
:1020200020FF7CC0F981F13009F069C01C96ED9168
:10203000FC912E813F81A1014C0D5D1DB201888D67
:10204000998D0995EE85FF85F595E7952E2F4FEF34
:10205000C41AD40A6C817D81680D791D7D836C83DF
:1020600078E0C716D104A1F68FEF481A580AAA8162
:10207000BB81A80DB91DBB83AA83E889F989E41542
:10208000F50509F0BCCF2E813F8126153705A9F053
:10209000A88DB98DED91FC91B981B13009F051C095
:1020A000B5016B5F7F4F0088F189E02D830128E047
:1020B00030E0A101888D998D0995A88DB98DED919C
:1020C000FC9111970688F789E02DCD0169960FB62E
:1020D000F894DEBF0FBECDBFDF91CF911F910F915E
:1020E000FF90EF90DF90CF90BF90AF909F908F9038
:1020F0007F906F905F904F903F902F9009941E9625
:10210000ED91FC91EE80FF80840194014C815D8112
:102110006A817B81888D998D099594CF2E813F812D
:102120002615370509F48ECF3981313029F41C96F4
:10213000ED91FC9193017FCF1E96ED91FC9173017F
:10214000E3CF68857985681979090684F785E02DDC
:1021500073010C851D859401A101888D998D0995C8
:10216000ACCFF90134969491329745915491D91A94
:10217000B7E0DB9E400D511D1124F90125913491EA
:10218000398B288BFA0145905490FA01329664906D
:102190003196C4903296149131960491398132303F
:1021A00008F48AC0E12E012E000CFF08402F002EFB
:1021B000000C550B59874887A88DB98DED91FC917E
:1021C00011970284F385E02DCD010995B9818B2EFD
:1021D000912CE89CC001E99C900DF89C900D112475
:1021E000FC01EA0DFB1DFF87EE871C82D12C712CB0
:1021F0009B868A869101200F311D07FD3A953D8B04
:102200002C8BA501410F511D17FD5A955F8B4E8BED
:102210007C1408F052CF872D90E048855985480FEF
:10222000591F6A857B85469F9001479F300D569FB9
:10223000300D1124D901A20DB31DBD87AC87EE85E9
:10224000FF85FB83EA83B12CA12C2C893D89280FC3
:10225000391F3B8B2A8B8C818A0DA61408F040C055
:10226000877041F4C2010196E889F989E40DF51DF2
:10227000D4902C01D7FE15C0A88DB98DED91FC919D
:10228000B981B130F1F40484F585E02D2E813F81D0
:102290004A895B896E897F896A0D7B1D888D998D3E
:1022A0000995DD0CEFEFAE1ABE0A2A813B81280D9D
:1022B000391D3B832A83CFCF19861886F12CE12C58
:1022C0007BCF0684F785E02DEE80FF8084019401AA
:1022D0004C855D856A817B81888D998D0995E1CFDB
:1022E0003C81360D3C83739493CF69960FB6F89476
:1022F000DEBF0FBECDBFDF91CF911F910F91FF9039
:10230000EF90DF90CF90BF90AF909F908F907F9095
:102310006F905F904F903F902F900895AF92BF9233
:10232000CF92EF92FF920F931F93CF93DF93EC0125
:10233000262F888D998D009709F04FC06A30C9F417
:102340001D861C868C8998E0899F900111248E85BA
:102350009F85820F931F9F878E8781E090E0DF919A
:10236000CF911F910F91FF90EF90CF90BF90AF90C2
:1023700008956D3091F3CC888E898823C1F08C85C7
:102380009D85E6E0CE9E800D911D112448855985DE
:102390004817590764F44E855F851D861C86F8E052
:1023A000CF9EC0011124840F951F9F878E87EA88D6
:1023B000FB88088919894E855F856C857D85CE01EE
:1023C0000E94810F2C898C859D8536E0239F800D8E
:1023D000911D11249D878C87C0CF6A3069F41D86BA
:1023E0001C86FC013696E4912C898E859F85E29FA0
:1023F000800D911D1124AFCF6D3009F4AECFFC01DB
:1024000034963491631708F4A8CF3196E491E61717
:1024100008F4A3CFFC01329645915491E62FE31BBB
:10242000FF0B37E03E9F50013F9FB00C1124A40EDC
:10243000B51EF501329634913196E4913323A1F122
:10244000EE2391F1CC88F5013596E4914E89442331
:1024500001F10E2E000CFF0BE30FF11DCE9EA0012B
:10246000CF9E500D11246C857D85460F571F6885C2
:102470007985641775076CF44E855F851D861C860B
:102480000696FC018491C89E400D511D11245F8762
:102490004E87EA88FB88088919894E855F856C8597
:1024A0007D85CE010E94810FF5013496E4912C893F
:1024B0008C859D85E29F800D911D11248BCF6F929D
:1024C0007F928F929F92AF92BF92CF92DF92EF92C4
:1024D000FF920F931F93CF93DF93EC016B015A018F
:1024E00039014801E881F9810284F385E02D0995DD
:1024F000E881F9810288F389E02D87019301A50124
:10250000B601CE010995A501480D591D415051094B
:10251000E881F9810288F389E02D9301B601CE01AB
:102520000995E881F9810088F189E02D9401A501E0
:10253000B601CE010995C60CD71CB60161507109D0
:10254000E881F9810088F189E02D9401A501CE018F
:102550000995E881F9810688F789E02DCE01DF91A0
:10256000CF911F910F91FF90EF90DF90CF90BF9090
:10257000AF909F908F907F906F9009946F927F9211
:102580008F929F92AF92BF92CF92DF92EF92FF9283
:102590000F931F93CF93DF935C01EB016A01490115
:1025A00038018701DC01ED91FC916217730719F581
:1025B000641675062CF0962D872D3A01C92ED82E5B
:1025C0009601261937092F5F3F4F048CF58DE02DBA
:1025D000A301BE01C5010995DF91CF911F910F9114
:1025E000FF90EF90DF90CF90BF90AF909F908F9033
:1025F0007F906F9008954615570591F42617370779
:1026000024F0892D4B01C22FD82F9E01281939099A
:102610002F5F3F4F068CF78DE02DA601B401DACF76
:102620000284F385E02D0995D501ED91FC91048894
:10263000F589E02D83019401A601BE01C50109952C
:10264000D501ED91FC910688F789E02DC501DF9158
:10265000CF911F910F91FF90EF90DF90CF90BF909F
:10266000AF909F908F907F906F900994EF92FF9220
:102670000F931F93DC011A960D911C911B971896CE
:102680002D913C911997ED91FC9100A0F1A1E02DC5
:102690007B0150E040E070E060E009951F910F91F0
:1026A000FF90EF9008954F925F926F927F928F927A
:1026B0009F92AF92BF92CF92DF92EF92FF920F93D1
:1026C0001F93CF93DF936C012B015A01390148010D
:1026D000DC01ED91FC910284F385E02D0995E20186
:1026E000640C751CD601ED91FC91C615D7055CF400
:1026F0000088F189E02D87019401A501BE01C60182
:1027000009952196EFCF0688F789E02DC601DF9164
:10271000CF911F910F91FF90EF90DF90CF90BF90DE
:10272000AF909F908F907F906F905F904F900994A3
:102730008F929F92AF92BF92CF92DF92EF92FF92D1
:102740000F931F93CF93DF93EC015B014A01690163
:10275000E881F9810284F385E02D099595012C0D1E
:102760003D1D21503109E881F9810488F589E02D6A
:1027700078018401A401B501CE010995E881F981B0
:102780000688F789E02DCE01DF91CF911F910F913F
:10279000FF90EF90DF90CF90BF90AF909F908F9081
:1027A00009948F929F92AF92BF92CF92DF92EF9255
:1027B000FF920F931F93CF93DF93EC015B014A01CC
:1027C00069017801E881F9810284F385E02D09959A
:1027D000C80CD91C860101501109E881F9810488CF
:1027E000F589E02D9501A401B501CE010995E88197
:1027F000F9810688F789E02DCE01DF91CF911F91F5
:102800000F91FF90EF90DF90CF90BF90AF909F908F
:102810008F900994EF92FF920F931F93DC01ED913B
:10282000FC9100A0F1A1E02D09951F910F91FF905F
:10283000EF9008950F931F93DC01ED91FC91068CAE
:10284000F78DE02D09951F910F9108950F931F9318
:10285000DC01ED91FC91048CF58DE02D09951F9123
:102860000F9108952F923F924F925F926F927F92B5
:102870008F929F92AF92BF92CF92DF92EF92FF9290
:102880000F931F93CF93DF93CDB7DEB728970FB683
:10289000F894DEBF0FBECDBF4C012B0158874F838C
:1028A00059019A01220F331F2F5F3F4FAB018F81D8
:1028B0009885481B590B8501B4018EE298E00E946F
:1028C000261481E090E07C012F813885E21AF30A1A
:1028D000C901919581959109AC01440F551F5C8305
:1028E0004B83D12CC12C66246394712C8F819885E5
:1028F000C816D9060CF053C0F7FC0BC00197988797
:102900008F832B813C812E5F3F4F3C832B83E20ED4
:10291000F31E3FEFC31AD30A42E0640E711CE60CAB
:10292000F71C2F803884220C331C5FEF251A350AE0
:10293000B601680D791D85019101C2014F8158854D
:10294000841B950B9A838983AC018EE298E00E94E8
:102950002614C2018C199D099E838D839301AC01BD
:102960006F817885680D791D8EE298E00E942614AB
:10297000B4016C197D09910149815A818EE298E078
:102980000E94261493014D815E81B4018F81988548
:10299000681B790B8EE298E00E942614A7CF289638
:1029A0000FB6F894DEBF0FBECDBFDF91CF911F9160
:1029B0000F91FF90EF90DF90CF90BF90AF909F90DE
:1029C0008F907F906F905F904F903F902F900895E1
:1029D000DC01ED91FC910084F185E02D09943F929A
:1029E0004F925F926F927F928F929F92AF92BF921F
:1029F000CF92DF92EF92FF920F931F93CF93DF93CB
:102A00005C017B014A016901390187E0680E711C94
:102A100093E0759467949A95E1F72B01400E511E4F
:102A200010E000E0312CD0E0C0E0CE0187709927A3
:102A3000330C892B59F4FE0183E0F595E7958A95CF
:102A4000E1F7E00FF11FE80DF91D349037FE0AC0E1
:102A500021E030E0A701B5016C0F7D1F8EE298E008
:102A60000E94E8142196CC16DD06F9F68FEFE81ADD
:102A7000F80A060D171DE414F504A9F6DF91CF91AD
:102A80001F910F91FF90EF90DF90CF90BF90AF908C
:102A90009F908F907F906F905F904F903F900895A0
:102AA0002F923F924F925F926F927F928F929F925E
:102AB000AF92BF92CF92DF92EF92FF920F931F934C
:102AC000CF93DF9300D000D0CDB7DEB77C018B0170
:102AD0005C834B8381E090E05C01A41AB50A1A0183
:102AE000319421943108220C331C460F571F21E0EA
:102AF00030E0B7018EE298E00E94E814A8012B8133
:102B00003C81421B530B21E030E0B7018EE298E09C
:102B10000E94E8146B817C816E0D7F1D21E030E006
:102B2000A8018EE298E00E94E814B7018B819C8195
:102B3000681B790B21E030E0A8018EE298E00E944A
:102B4000E81421E030E03A832983D12CC12CB7FC72
:102B50000AC08B819C8101979C838B8392E0290E14
:102B6000311CA20CB31C2FEFC21AD20A89819A81A0
:102B700002969A838983A80EB91E36016E0C7F1CBB
:102B800021E030E08B809C80800E911EA401B30177
:102B90008EE298E00E94E81427014C185D0821E0BD
:102BA00030E0A401B2018EE298E00E94E81421E036
:102BB00030E048018B819C81881A990AA401B301F5
:102BC0008EE298E00E94E81421E030E0A401B20116
:102BD0008EE298E00E94E8144601800E911E21E0EA
:102BE00030E0A4016B807C806E0C7F1CB3018EE210
:102BF00098E00E94E81421E030E0A40127018B81D5
:102C00009C81481A590AB2018EE298E00E94E814A9
:102C100048018C189D0821E030E0A401B3018EE248
:102C200098E00E94E81421E030E0A401B2018EE2B5
:102C300098E00E94E8142B813C81C216D3060CF464
:102C400086CF0F900F900F900F90DF91CF911F9133
:102C50000F91FF90EF90DF90CF90BF90AF909F903B
:102C60008F907F906F905F904F903F902F9008953E
:102C70002F923F924F925F926F927F928F929F928C
:102C8000AF92BF92CF92DF92EF92FF920F931F937A
:102C9000CF93DF9300D000D000D0CDB7DEB73C019A
:102CA0006A013E832D83FC82EB825801A41AB50A87
:102CB000B7FE03C0B194A194B1088D809E80861A9E
:102CC000970A97FE03C09194819491088A149B04FB
:102CD0005CF0902F812F0D811E819D838E839C2D12
:102CE0008D2D6B01692F782F0C151D055CF09D81D2
:102CF0008E817E836D83692F782F902F812F86019F
:102D0000C92ED82E1601201A310A2B012D813E81A1
:102D1000421A530A57FE03C051944194510871015D
:102D200037FE03C03FEFE31AF30AF594E7948D8171
:102D30009E81861797075CF5A1E0B0E0BA83A9836E
:102D4000C016D1064CF1D301ED91FC910484F585B8
:102D5000E02D2B813C81A8016D817E818A149B042A
:102D60001CF04D815E81B801C3010995E418F50896
:102D7000F7FE0AC02D813E8189819A81280F391F73
:102D80003E832D83E20CF31C0F5F1F4FD9CF2FEF33
:102D90003FEF3A832983D4CF26960FB6F894DEBF4F
:102DA0000FBECDBFDF91CF911F910F91FF90EF909C
:102DB000DF90CF90BF90AF909F908F907F906F905B
:102DC0005F904F903F902F900895089520911F0697
:102DD000260F3327331F21323105ECF42091A00652
:102DE000FC0190E080E0243069F082E00895A09139
:102DF0001F062191AC0141505A4FA40FB52FB11DB0
:102E00002C930196861798F380911F06680F6093A4
:102E10001F0680E0089581E008951092A00681E0E9
:102E200080939F0610927A0661E082E10E94C908B1
:102E300061E083E10E94C908E9EBF0E080818E7FC8
:102E4000808380818D7F808388E48093B80085E4CF
:102E50008093BC000895CF93DF9391E09093FE059B
:102E60008823B9F0C091B800D091BA008091BC001D
:102E70008A7B8093BC0060E082E10E94C90860E028
:102E800083E10E94C9080E940D17D093BA00C09335
:102E9000B800DF91CF910895CF92DF92EF92FF9229
:102EA0000F931F93CF93DF93D091C90681E0D13266
:102EB00008F09CC0C091C8060E94BD0B6B017C014C
:102EC0008091A00681116CC082E08093A00681E011
:102ED00080939F068FEF80939E0610929D06D0935D
:102EE0009C06A8EAB6E0ECE7F6E080E0D8138DC0D7
:102EF00010927B0680917B06CC0FC82BC0937B067B
:102F000080917A06813009F084C010927A060E947E
:102F1000BD0B6B017C0180917B068093BB0080918F
:102F2000A2069091A306A091A406B091A506892BB4
:102F30008A2B8B2BA1F00E94BD0B0091A206109151
:102F4000A3062091A4063091A5066C197D098E096F
:102F50009F09061717072807390708F442C0809110
:102F6000BC0083FDD8CF85EC8093BC000E94BD0BD4
:102F70006B017C018091A006823009F44CC08091E5
:102F80009E068F3F09F469C080919E06803209F445
:102F900066C080919E06803309F463C084E026C039
:102FA0008091A2069091A306A091A406B091A506D7
:102FB000892B8A2B8B2B09F483CF0E94BD0B0091A8
:102FC000A2061091A3062091A4063091A5066C19C3
:102FD0007D098E099F09061717072807390708F08A
:102FE0006FCF8091A1060E942B1785E01092A70653
:102FF0001092C9061092A606DF91CF911F910F91F2
:10300000FF90EF90DF90CF9008959D9191938F5F07
:103010006DCF85EEA9CF8091A2069091A306A091D5
:10302000A406B091A506892B8A2B8B2B09F4A2CF7D
:103030000E94BD0B0091A2061091A3062091A40648
:103040003091A5066C197D098E099F09061717078F
:103050002807390708F08ECFC4CF80E0C7CF82E0C1
:10306000C5CF83E0C3CFE0914C0680914B06E817B3
:1030700030F4F0E0E252FA4F808190E008958FEF53
:103080009FEF089590914C0680914B062FEF3FEFF4
:10309000981748F4E92FF0E0E252FA4F208130E02F
:1030A0009F5F90934C06C901089580914B069091C3
:1030B0004C06891B990B0895CF92DF92EF92FF92F5
:1030C0000F931F93CF93DF937C01CB018A01209153
:1030D000A606222389F0EB016B01C40ED51ECC1588
:1030E000DD0569F06991D701ED91FC910190F081C6
:1030F000E02DC7010995F3CF642F0E94E616C801A1
:10310000DF91CF911F910F91FF90EF90DF90CF90C3
:103110000895CF93DF931F92CDB7DEB769832091D7
:10312000A6062223F9F02091C906203258F021E0AA
:1031300030E0FC013383228390E080E00F90DF9148
:10314000CF9108958091A706E82FF0E0E855F94F58
:10315000998190838F5F8093A7068093C90681E051
:1031600090E0ECCF61E0CE0101960E94E616F7CF29
:10317000CF93C82F80914A088F3FB1F1E091540856
:10318000F0915508808190915A08892B8083E091B5
:103190005608F0915708908180915B0880958923AB
:1031A0008083E0915408F0915508908180915A08ED
:1031B00080958923808380914F08882389F0CEBD34
:1031C00000000DB407FEFDCF8EB5E0915408F091DC
:1031D0005508808190915A08892B8083CF9108955A
:1031E0008C2F0E943C07F1CF8091480891E090938A
:1031F000A6068093C8061092A7061092C90660E042
:1032000088E797E00E9489186C2F88E797E00E9472
:103210008918CF910C944C17DF92EF92FF920F9385
:103220001F93CF93DF9381E20E94B81880E00E9441
:10323000B8188FE70E94B81882E20E94B81880E0A0
:103240000E94B81887E00E94B81880914A088F3F02
:1032500009F442C0E0915408F091550880819091A2
:103260005A08892B8083E0915608F0915708808195
:1032700090915B08892B8083E0915408F091550868
:10328000908180915A08809589238083CBE1D1E099
:103290000BE115E0899190914F089923D1F08EBDF3
:1032A00000000DB407FEFDCF8EB50C171D0791F77A
:1032B000E0915408F0915508808190915A08892B2B
:1032C0008083DF91CF911F910F91FF90EF90DF905E
:1032D00008950E943C07E9CF0091B8008CE08093EC
:1032E000B800CBE1D1E0DD24D39480914808D0929E
:1032F000A6068093C8061092A7061092C90660E43D
:1033000088E797E00E9489187E0110E1F70161913A
:103310007F0188E797E00E9489181150B9F70E9451
:103320004C176096F5E0CB31DF07F9F60093B80053
:10333000C8CF90E080E00895CF92DF92EF92FF92A5
:103340006B01770FEE08FF08B701A6010E945F0925
:10335000C701B6010E94E20B8DE00E94F70862E30C
:1033600070E080E090E0FF90EF90DF90CF900C94C1
:10337000E20BFC0101900020E9F73197AF01481BF7
:10338000590BBC018EE298E00C946A078F929F92D1
:10339000AF92BF920F931F93CF93DF93CDB7DEB75A
:1033A000A1970FB6F894DEBF0FBECDBF19A2423071
:1033B00008F44AE08E010F5D1F4F842E912CB12C32
:1033C000A12CA50194010E943329E62FB901CA015D
:1033D000EA30F4F4E05DD801EE938D01232B242B29
:1033E000252B79F790E080E0109719F0CD010E942D
:1033F000B919A1960FB6F894DEBF0FBECDBFDF910D
:10340000CF911F910F91BF90AF909F908F90089593
:10341000E95CE1CFCF93DF930E94B919EC0180E81A
:1034200095E00E94B9198C0F9D1FDF91CF910895EF
:10343000EBE1F1E080E094E0DF019C011D9221507E
:103440003040E1F70895CF92DF92EF92FF92CF9351
:10345000DF936C01990FEE08FF08F7FE1FC06DE2C5
:103460008EE298E00E948E11EC0166277727CB014F
:103470006C197D098E099F094AE00E94C619C80F80
:10348000D91F80E895E00E94B9198C0F9D1FDF912C
:10349000CF91FF90EF90DF90CF9008954AE0C70161
:1034A000B6010E94C619EC01ECCF0E94CE2B85ED2F
:1034B0008093BC008091A2069091A306A091A406DF
:1034C000B091A5060796A11DB11D23E0B695A7955D
:1034D000979587952A95D1F72091BC0024FD03C0CC
:1034E0001092A00608954091A2065091A306609103
:1034F000A4067091A506452B462B472B69F3009730
:10350000A105B10541F025E32A95F1F700000197E7
:10351000A109B109E1CF8091A1060C942B171F924C
:103520000F920FB60F9211242F933F934F935F93F7
:103530006F937F938F939F93AF93BF93EF93FF937B
:103540008091CF069091D006A091D106B091D2067D
:10355000892B8A2B8B2BD1F19091CA06E091CB0657
:10356000F091CC068081892780838091CF0690914D
:10357000D006A091D106B091D206181619061A06E7
:103580001B069CF48091CF069091D006A091D106A5
:10359000B091D2060197A109B1098093CF0690930B
:1035A000D006A093D106B093D206FF91EF91BF91C0
:1035B000AF919F918F917F916F915F914F913F91CB
:1035C0002F910F900FBE0F901F90189580911B05A3
:1035D0000E94F708EACF1F920F920FB60F921124A4
:1035E0002F933F934F935F936F937F938F939F930B
:1035F000AF93BF93EF93FF938BED96E00E94E807A4
:10360000FF91EF91BF91AF919F918F917F916F91BA
:103610005F914F913F912F910F900FBE0F901F9090
:1036200018951F920F920FB60F9211242F938F931C
:103630009F93EF93FF93E091EB06F091EC0680816E
:10364000E091F106F091F20682FD1BC0908180911D
:10365000F4068F5F8F732091F506821741F0E09199
:10366000F406F0E0E552F94F958F8093F406FF9150
:10367000EF919F918F912F910F900FBE0F901F9000
:1036800018958081F4CF1F920F920FB60F921124DC
:103690002F933F938F939F93AF93BF9380914E0649
:1036A00090914F06A0915006B0915106309142067C
:1036B00023E0230F2D3758F50196A11DB11D20934E
:1036C000420680934E0690934F06A0935006B09307
:1036D00051068091430690914406A0914506B09111
:1036E00046060196A11DB11D8093430690934406A2
:1036F000A0934506B0934606BF91AF919F918F91DD
:103700003F912F910F900FBE0F901F90189526E8B4
:10371000230F0296A11DB11DD2CF1F920F920FB69B
:103720000F9211242F933F934F935F936F937F9347
:103730008F939F93AF93BF93EF93FF938091B900C3
:10374000887F803609F44AC0F0F5883209F4A7C0B2
:1037500018F5803109F49BC0B8F4882309F4F9C046
:10376000883009F494C0FF91EF91BF91AF919F9180
:103770008F917F916F915F914F913F912F910F901A
:103780000FBE0F901F901895883109F488C08032C1
:1037900051F780939E0614C0803409F49DC040F414
:1037A0008033B9F38833F9F680939E0685ECB0C078
:1037B000803509F485C0883509F496C0883499F6B7
:1037C0000E94571AD0CF883909F48CC038F5883751
:1037D00029F050F4883611F0803729F683E0809381
:1037E000A0061092410657C0883809F47BC0803982
:1037F00019F0803809F0B7CF80914106803208F087
:1038000071C0E091410681E08E0F80934106809166
:10381000BB00F0E0EF5DF94F80833DC0803B39F0A5
:10382000E0F4803A09F479C0883A09F09CCF84E04A
:103830008093A0061092200610921F06E091490680
:10384000F0914A06099580911F0681110FC081E011
:1038500080931F061092FF0509C0803C09F4A6CF93
:10386000883C09F4A3CF883B09F07DCFE091200686
:1038700081E08E0F80932006F0E0E150FA4F8081C6
:103880008093BB009091200680911F0629C08091F3
:103890007B068093BB0085EC8093BC0064CF909145
:1038A0009D0680919C06981758F5E0919D0681E051
:1038B0008E0F80939D06F0E0E458F94F8081E9CFA8
:1038C000E0919D0681E08E0F80939D068091BB0064
:1038D000F0E0E458F94F808390919D0680919C061A
:1038E0009817C8F285E8D8CFE0919D0681E08E0F49
:1038F00080939D068091BB00F0E0E458F94F8083EF
:1039000080919F0681115CCF81E080937A0684EAE2
:103910008093BC001092A00626CF85EC8093BC005B
:103920001092A00680914106803230F4E091410669
:10393000F0E0EF5DF94F10826091410670E0E09198
:103940004706F091480681E296E0099510924106FB
:103950000ACF10929E0634CFEBEDF6E0138212826E
:1039600088EE93E0A0E0B0E084839583A683B783DC
:1039700024E335E03183208325EC30E0358724874C
:1039800024EC30E03787268720EC30E0318B208B29
:1039900021EC30E0338B228B22EC30E0358B248B12
:1039A00026EC30E0378B268B118E128E138E148E00
:1039B000E8E7F7E01382128284839583A683B783B6
:1039C00086E495E091838083EEE2F8E01382128230
:1039D00020E830E03583248380E490E09783868379
:1039E0003187208793878287158A158614861786E4
:1039F000168681E0848B2FEF3FEF338B228B318B48
:103A0000208B868B178A118E108E88E595E0918326
:103A100080838FEF848F80A3868F858F84E0878F4C
:103A2000E4E8F7E01082118A12A213AA1092C807E4
:103A30001092D9071092EA071092FB0710920C0817
:103A400010921D080895789484B5826084BD84B571
:103A5000816084BD85B5826085BD85B5816085BD89
:103A600080916E00816080936E0010928100809141
:103A700081008260809381008091810081608093C9
:103A80008100809180008160809380008091B100EE
:103A900084608093B1008091B00081608093B00019
:103AA00080917A00846080937A0080917A008260AD
:103AB00080937A0080917A00816080937A0080916F
:103AC0007A00806880937A001092C100E091EB0642
:103AD000F091EC06C2E0C083E091E706F091E806C1
:103AE0001082E091E906F091EA068FEC8083109253
:103AF000F306E091EF06F091F00686E08083E09116
:103B0000ED06F091EE06808180618083E091ED0604
:103B1000F091EE06808188608083E091ED06F0915F
:103B2000EE06808180688083E091ED06F091EE06DC
:103B300080818F7D808360E08EE00E94230983E096
:103B400080930001C09349088CE3809348088091DA
:103B50004A088F3F09F44AC361E080914C080E94F3
:103B6000230961E080914E080E94230980914E084C
:103B7000082E000C990BFC01E45FF14FE491F0E09A
:103B8000EE0FFF1FEE5FF14F2591349130935508F2
:103B900020935408FC01E251F24FE491E0935A085B
:103BA00080914C08082E000C990BFC01E45FF14F4A
:103BB000E491F0E0EE0FFF1FEE5FF14F259134919D
:103BC0003093570820935608FC01E251F24FE491DC
:103BD000E0935B0880914F0881113EC061E08091C5
:103BE0004A080E94230961E080914B080E94230942
:103BF00080914B08082E000C990BFC01E45FF14FFB
:103C0000E491F0E0EE0FFF1FEE5FF14F259134914C
:103C10003093530820935208FC01E251F24FE49193
:103C2000E093590880914A08082E000C990BFC017A
:103C3000E45FF14FE491F0E0EE0FFF1FEE5FF14F14
:103C4000259134913093510820935008FC01E251A2
:103C5000F24FE491E093580880914F08882309F4CB
:103C600037C0CFB7F89480914D06811127C0E6E1A7
:103C7000FEE08491E8EFFDE09491E82FF0E0EE0F94
:103C8000FF1FE757F34FA591B491EC91E92321F47D
:103C900061E08AE00E94C90861E08AE00E9423098D
:103CA0008CB580618CBD8CB580648CBD61E08DE08D
:103CB0000E94230961E08BE00E94230980914D0658
:103CC0008F5F80934D06CFBF80E58CBD81E08DBDB9
:103CD00080914D0887FD1EC061E00E94230961E0CC
:103CE00080914D080E94C90861E070E080E090E09A
:103CF0000E94E20B60E080914D080E94C9086AE0D2
:103D000070E080E090E00E94E20B61E080914D085D
:103D10000E94C9088EEA0E94B81885ED0E94B81862
:103D200080E80E94B81888EA0E94B8188FE30E94C1
:103D3000B81883ED0E94B81880E00E94B81880E49B
:103D40000E94B8188DE80E94B81884E10E94B81843
:103D500080E20E94B81880E00E94B81881EA0E94B0
:103D6000B81888EC0E94B8188AED0E94B81882E151
:103D70000E94B81881E80E94B8188FEC0E94B81809
:103D800089ED0E94B81881EF0E94B8188BED0E944F
:103D9000B81880E40E94B81884EA0E94B81886EA2D
:103DA0000E94B8188EE20E94B8188FEA0E94B818D4
:103DB0000E940C1968EE73E080E090E00E94E20B34
:103DC0000E94181AFF24F394F092420810923B08C4
:103DD00010923A0810923D0810923C08C1E0D0E0E1
:103DE000D0934108C0934008D0933F08C0933E0849
:103DF00061E089E00E94230961E088E00E942309D4
:103E000061E087E00E94230960E088E00E94C90821
:103E100060E087E00E94C90862E081E00E94230917
:103E200062E082E00E94230962E084E00E942309AC
:103E30000E940C190E94181A00E310E020E330E001
:103E40004AE95CE06BE070E086E090E00E94EF14ED
:103E5000F092420883E99CE09093470880934608DB
:103E6000D0934108C0934008D0933F08C0933E08C8
:103E700081E490E090933B0880933A0889E190E0D8
:103E800090933D0880933C0883E895E00E940A1ACD
:103E90008091460890914708892B49F080913C0811
:103EA00090913D08069790933D0880933C081092AE
:103EB000470810924608C1E0C093420800E310E0B2
:103EC00020E330E04AE95CE06BE070E086E090E0FF
:103ED0000E94EF1483E99CE0909347088093460882
:103EE00081E090E0909341088093400890933F08D0
:103EF00080933E0801E410E010933B0800933A08D9
:103F00008EE090E090933D0880933C0888E895E02F
:103F10000E940A1A109247081092460810933B0814
:103F200000933A0881E190E090933D0880933C082B
:103F3000C09342088EE895E00E940A1A10923B084E
:103F400010923A0810923D0810923C088EE480933B
:103F50007C0062E070E080E090E00E94E20B8091E3
:103F60007A00806480937A0080917A0086FDFCCF8D
:103F70008091780020917900322F282F032E000C99
:103F8000440B550B64EB7BE281E190E00E94012938
:103F9000CA01B90128EE33E040E050E00E94012957
:103FA000CA01B9010E94792A6B017C014B015C01B5
:103FB000AC019B010E949B2B882309F42EC181E94F
:103FC00095E00E94B91980E895E00E94B91983E94B
:103FD0009CE09093470880934608C1E4D0E0D093DA
:103FE0003B08C0933A0887E290E090933D088093A5
:103FF0003C088DE995E00E940A1A10924708109239
:104000004608D0933B08C0933A088AE290E0909328
:104010003D0880933C0883EA95E00E940A1A81E0FB
:1040200080934208D0933B08C0933A0887E390E01E
:1040300090933D0880933C0889EA95E00E940A1A13
:10404000D0933B08C0933A0884E190E090933D08F8
:1040500080933C080E940C19809146089091470873
:10406000892B49F080913C0890913D0806979093E8
:104070003D0880933C08109247081092460864EF70
:1040800071E088EB91E00E949C1964EF71E088EB8D
:1040900091E00E949C1964EF71E088EB91E00E942E
:1040A0009C196EE571E08DE591E00E949C1966E92E
:1040B00070E08BE092E00E949C1964EF71E088EB65
:1040C00091E00E949C196EE571E08DE591E00E94FF
:1040D0009C1966E970E08BE092E00E949C196AE806
:1040E00072E088EB91E00E949C1968EE73E080E03A
:1040F00090E00E94E20BA0E24A2EA3E05A2E612C2F
:10410000712CB1E22B2E312CF8EC8F2E912CCEECB1
:10411000DFEF8091000100E4809FC00111248093B3
:104120007C0080917A00806480937A0080917A008C
:1041300086FDFCCF8091780060917900762F682F02
:10414000072E000C880B990B0E94792A20E030EC96
:104150004FE754E40E94D6292DEC3CEC4CE85FE399
:104160000E942E2B21E73DE341E452E40E942E2BD6
:1041700029E334EB45ED52E40E94652920E030E06C
:1041800048EC52E40E94D62920E030E040E85FE3AA
:104190000E94642928E430E54CE75BE30E94D629BD
:1041A0006B017C012AE037ED43EA5BE30E942E2B92
:1041B0002AE939E949E95EE30E9465299B01AC01DE
:1041C000C701B6010E94642920E030E04AEF52E4C2
:1041D0000E94292B61E018160CF0B3C089E00E9400
:1041E000230961E089E00E94C908DAC010924C06F8
:1041F00010924B061092A7061092C9060E940D1746
:1042000088E697E090934A068093490689E697E00E
:1042100090934806809347065BCD26013701E894CA
:1042200077F82FEF3FEF4FE75FE7C301B2010E943E
:104230009B2B81110DC02FEF3FEF4FE75FE7C301CD
:10424000B2010E94D12918161CF485E995E0B9CE77
:104250002FEF3FEF4FE75FE4C701B6010E94292B24
:1042600018161CF489E995E0ACCE2FEF3FEF4FE72D
:104270005FECC701B6010E94D12987FDF3CF20E092
:1042800030E0A901C701B6010E94D12987FF0BC008
:104290006DE28EE298E00E948E1146015701B7FA56
:1042A000B094B7F8B0942AE037ED43EA5BE3C50178
:1042B000B4010E9465294B015C010E94482A6B01F0
:1042C0007C010E94772A9B01AC01C501B4010E94C8
:1042D00064294B015C014AE0C701B6010E94C6197E
:1042E0006EE28EE298E00E948E1120E030E040E223
:1042F00051E4C501B4010E942E2B4B015C010E94C8
:10430000482A6B01F12CE12C4AE0C701B6010E945A
:10431000C619C701B6010E94772A9B01AC01C501ED
:10432000B4010E94642920E030E040E251E40E94A0
:104330002E2B0E94482A90E080E04AE00E94C61995
:1043400042CE89E00E942309E3ECFDE084918330B2
:1043500009F45CC658F48130F1F0823009F041CFA5
:1043600084B5806284BD80E888BD1AC0873009F4B6
:1043700059C6883009F45FC6843009F032CF809185
:10438000800080628093800020E830E030938B00D2
:1043900020938A0005C084B5806884BD80E887BD0D
:1043A00061E088E00E94C90860E087E00E94C908D7
:1043B00064E170E080E090E00E94E20B68EE73E060
:1043C00080E090E00E94E20B80917806909179065F
:1043D000892B09F07DC40E94181A21E030E04EE1DB
:1043E00050E062E370E08EE298E00E94150C21E05C
:1043F00030E041E150E06EE170E08EE298E00E9432
:10440000150C21E030E042E150E06CE370E08EE218
:1044100098E00E94150C21E030E040E150E067E3B5
:1044200070E08EE298E00E94150C21E030E04BE253
:1044300050E069E170E08EE298E00E94150C21E006
:1044400030E04BE250E064E670E08EE298E00E94DB
:10445000150C21E030E044E350E065E770E08EE2C7
:1044600098E00E94150C21E030E041E350E06EE05E
:1044700070E08EE298E00E94150C21E030E048E107
:1044800050E068E170E08EE298E00E94150C21E0B7
:1044900030E044E250E06EE470E08EE298E00E948A
:1044A000150C21E030E049E350E060E570E08EE279
:1044B00098E00E94150C21E030E04BE050E06BE604
:1044C00070E08EE298E00E94150C21E030E04BE0B5
:1044D00050E066E970E08EE298E00E94150C21E061
:1044E00030E045E050E065E070E08EE298E00E9448
:1044F000150C21E030E047E050E068E070E08EE22B
:1045000098E00E94150C21E030E04CE050E066E4B9
:1045100070E08EE298E00E94150C21E030E048E364
:1045200050E06AE070E08EE298E00E94150C21E015
:1045300030E049E150E066E470E08EE298E00E94ED
:10454000150C8091760690917706892B59F52FB737
:10455000F89480914E0690914F06A0915006B0912C
:1045600051062FBF8093720690937306A093740632
:10457000B09375060E94A928A30192010E94012907
:1045800060577E4F8F4F9F4F60936E0670936F06FC
:10459000809370069093710681E090E09093770687
:1045A000809376068FB7F89440914E0650914F064F
:1045B00060915006709151068FBF40936A065093E8
:1045C0006B0660936C0670936D0680916606909101
:1045D0006706A0916806B09169068A019B01081BD5
:1045E000190B2A0B3B0BD901C8018135934CA1054E
:1045F000B10508F441C04093660650936706609386
:104600006806709369068091190190911A010196CC
:1046100090931A018093190120911701309118018C
:104620002F5F3F4F309318012093170180FD12C078
:104630008091150190911601019690931601809337
:104640001501809113019091140101979093140129
:10465000809313018091110190911201C297909360
:1046600012018093110180910F0190911001C29766
:104670009093100180930F0180916E0690916F06C8
:10468000A0917006B09171060091720610917306A8
:104690002091740630917506800F911FA21FB31FE1
:1046A00084179507A607B707F8F4809164069091E0
:1046B000650610927706109276060196909365062D
:1046C000809364068130910509F0BEC48FE590E0C7
:1046D00090930E0180930D0180910B0190910C013C
:1046E00090936306809362068091640690916506BC
:1046F00018161906D4F4609162067091630642E0C0
:1047000050E080910D0190910E010E945015809112
:104710000D0190910E012091170130911801821B1B
:10472000930B90930E0180930D01809164069091FC
:1047300065060297D4F0609160067091610641E0D1
:1047400050E08091090190910A010E9450158091DA
:10475000090190910A012091170130911801821BE3
:10476000930B90930A0180930901809164069091C4
:1047700065060397D4F060915E0670915F0644E091
:1047800050E080910701909108010E94501580919E
:104790000701909108012091170130911801821BA7
:1047A000930B909308018093070180916406909188
:1047B00065060497D4F060915C0670915D0642E056
:1047C00050E080910501909106010E945015809162
:1047D0000501909106012091170130911801821B6B
:1047E000930B909306018093050181E00E94A0083D
:1047F000892B61F48091030190910401823091052D
:104800002CF00297909304018093030182E00E94B0
:10481000A008892B61F480910301909104018F32EB
:1048200091052CF40296909304018093030184E097
:104830000E94A008892B19F580915A0690915B0679
:10484000892BE9F481E090E090935B0680935A060F
:1048500086E090E09093590680935806809103017A
:10486000909104010896909357068093560644E170
:1048700050E060E070E080EB94E00E945F0980917E
:104880005A0690915B060197C9F420915806309121
:104890005906B901685F7F4F7093590660935806B7
:1048A0004091560650915706245F3F4FEE24E39403
:1048B000F12C8A018EE298E00E94BE126091030101
:1048C0007091040100E110E020E130E04EEC5DE089
:1048D00084E090E00E94EF14409113015091140184
:1048E00060910B0170910C0121E030E08FE590E0C8
:1048F0000E943214809113019091140163E070E0E2
:104900000E94A02BAB0160910B0170910C016D5FB7
:104910007F4F30E020E081E690E00E94321481E099
:104920008093420881E090E0909341088093400892
:1049300090933F0880933E0830923B0820923A08BB
:1049400009E310E010933D0800933C0882EB95E0EA
:104950000E940A1A24E430E030933B0820933A087E
:1049600010933D0800933C088091540690915506A1
:104970000E94231A30923B0820923A0810923D0878
:1049800010923C0889EB95E00E940A1A84E490E0BA
:1049900090933B0880933A0810923D0810923C088F
:1049A00080910101909102010E94231AEEE6F0E04D
:1049B000F0933B08E0933A0810923D0810923C08AF
:1049C00080EC95E00E940A1A2AE730E030933B0819
:1049D00020933A0810923D0810923C0880911901EA
:1049E00090911A010E94231A8CE690E090933B0864
:1049F00080933A0810933D0800933C0860916A0642
:104A000070916B0680916C0690916D0628EE33E0F4
:104A100040E050E00E943329CA01B9014AE00E94F7
:104A2000C61980E895E00E94B9190E940C194091BE
:104A30005806509159064138510524F010925B06F2
:104A400010925A0680910B0190910C012091150152
:104A5000309116016091520670915306672B09F050
:104A600029C3820F931F90930C0180930B018091B7
:104A700013019091140120910B0130910C0160E41D
:104A800070E0681B790B2617370734F061E070E09F
:104A900070935306609352068217930724F0109286
:104AA0005306109252066091560670915706F9010E
:104AB000E81BF90B6E177F0764F1280F391F2617C3
:104AC00037073CF12FE530E0281B390B2417350759
:104AD00004F5815A9F4F48175907DCF4ECEEFFEFBD
:104AE000F0935906E093580644E150E060E070E02E
:104AF00084EF91E00E945F098091540690915506E1
:104B00000196909355068093540610925B0610927E
:104B10005A06009103011091040180916206909160
:104B200063068017910754F19801205F3F4F2817C3
:104B3000390724F180910D0190910E010597079797
:104B4000E8F4E0900101F09002018FE590E090938D
:104B50000E0180930D01D0936306C093620644E674
:104B600050E060E070E084E690E00E945F09F1E0D0
:104B7000EF1AF108F0920201E092010180916006C3
:104B8000909161068017910744F19801205F3F4F93
:104B90002817390714F18091090190910A010597AE
:104BA0000797D8F4E0900101F0900201D0930A0138
:104BB000C0930901D0936106C093600644E650E0BB
:104BC00060E070E084E690E00E945F0921E0E21A74
:104BD000F108F0920201E092010180915E0690914D
:104BE0005F068017910744F19801205F3F4F281717
:104BF000390714F1809107019091080105970797F3
:104C0000D8F4E0900101F0900201D0930801C09324
:104C10000701D0935F06C0935E0644E650E060E073
:104C200070E084E690E00E945F0931E0E31AF10849
:104C3000F0920201E092010180915C0690915D0684
:104C40008017910754F1005F1F4F081719072CF1C7
:104C5000809105019091060105970797F0F4009166
:104C60000101109102019092060180920501D093FA
:104C70005D06C0935C06109265061092640644E6D9
:104C800050E060E070E084E690E00E945F0901502F
:104C90001109109302010093010180910501909187
:104CA00006011816190644F0109265061092640663
:104CB000909206018092050180910101909102017C
:104CC000892B31F481E090E0909379068093780607
:104CD0008091780690917906019709F08AC18091B8
:104CE000010190910201892B81F54CE251E060E0D5
:104CF00070E088EC90E00E945F096CE271E080E077
:104D000090E00E94E20B48EC50E060E070E08AEF37
:104D100090E00E945F0968EC70E080E090E00E9403
:104D2000E20B4CE251E060E070E08CE291E00E9426
:104D30005F096CE271E080E090E00E94E20B85E0A8
:104D400090E090930201809301010E94181A109242
:104D500047081092460882E08093420801E010E084
:104D6000109341080093400810933F0800933E08B9
:104D700087E0E82EF12CF0923B08E0923A088AE0B6
:104D800090E090933D0880933C0883EC95E00E946E
:104D90000A1A81E080934208F0923B08E0923A08B8
:104DA0009EE1C92ED12CD0923D08C0923C0882EBE6
:104DB00095E00E940A1A2CE2A22EB12CB0923B0878
:104DC000A0923A08D0923D08C0923C0880915406C7
:104DD000909155060E94231AF0923B08E0923A08FF
:104DE00038E2C32ED12CD0923D08C0923C088EEC04
:104DF00095E00E940A1AB0923B08A0923A08D0921D
:104E00003D08C0923C088091190190911A010E94BE
:104E1000231AF0923B08E0923A0842E3E42EF12C88
:104E2000F0923D08E0923C0885ED95E00E940A1A58
:104E30008CE390E090933B0880933A08F0923D0811
:104E4000E0923C0860916A0670916B0680916C0656
:104E500090916D0628EE33E040E050E00E94332947
:104E6000CA01B9014AE00E94C61980E895E00E9493
:104E7000B9190E940C1984E00E94A008892B09F03E
:104E8000B8C04CE251E060E070E088E191E00E943F
:104E90005F096CE271E080E090E00E94E20B48EC78
:104EA00050E060E070E08AEF90E00E945F0968ECFB
:104EB00070E080E090E00E94E20B4CE251E060E0A4
:104EC00070E082E791E00E945F096CE271E080E0AF
:104ED00090E00E94E20B1092590610925806109230
:104EE00057061092560610925B0610925A0688E0FA
:104EF00090E090930C0180930B0110925306109256
:104F0000520610927906109278068FE590E0909301
:104F10000E0180930D011092630610926206909329
:104F20000A01809309011092610610926006909325
:104F300008018093070110925F0610925E0610929E
:104F4000550610925406E3E0F0E0F0931801E09368
:104F50001701109316010093150128E532E03093F4
:104F600012012093110120EB34E0309310012093C3
:104F70000F012CE030E03093140120931301909343
:104F800006018093050110925D0610925C0685E093
:104F900090E09093020180930101109277061092A5
:104FA0007606109265061092640610931A0100931B
:104FB00019011092720610927306109274061092E4
:104FC000750610926E0610926F061092700610927F
:104FD000710610926A0610926B0610926C0610927F
:104FE0006D0610926606109267061092680610927F
:104FF000690680E090E0892B09F48BC80E94D407F1
:10500000882309F481C80E9400007EC88091800036
:1050100080688093800000E810E01093890000937E
:105020008800BEC98091B00080688093B00080E89D
:105030008093B300B5C98091B00080628093B000C6
:1050400080E88093B400ACC98230910579F48FE593
:1050500090E090930A018093090180910B01909157
:105060000C0190936106809360063ECB83309105DE
:1050700079F48FE590E09093080180930701809187
:105080000B0190910C0190935F0680935E062CCBF0
:10509000049709F029CB8FE590E090930601809367
:1050A000050180910B0190910C0190935D06809316
:1050B0005C061ACB821B930BD6CC8F929F92AF9239
:1050C000BF92CF92DF92EF92FF92CF93DF93EC01EA
:1050D000688179818A819B816115710581059105BE
:1050E00021F464E279ED8BE597E02DE133EF41E0C7
:1050F00050E00E94012949015A019B01AC01A7EA35
:10510000B1E40E9420296B017C01ACEEB4EFA50153
:1051100094010E942E29C60ED71EE81EF91EF7FE26
:1051200006C081E0C81AD108E10880E8F80AC88200
:10513000D982EA82FB82C701B6019F77DF91CF91C6
:10514000FF90EF90DF90CF90BF90AF909F908F90A7
:1051500008958F929F92AF92BF92CF92DF92EF927B
:10516000FF9260911C0570911D0580911E05909124
:105170001F05611571058105910521F464E279ED42
:105180008BE597E02DE133EF41E050E00E940129EB
:1051900049015A019B01AC01A7EAB1E40E94202910
:1051A0006B017C01ACEEB4EFA50194010E942E29A5
:1051B000C60ED71EE81EF91EF7FE06C081E0C81A0B
:1051C000D108E10880E8F80AC0921C05D0921D05BC
:1051D000E0921E05F0921F05C701B6019F77FF9070
:1051E000EF90DF90CF90BF90AF909F908F900895F9
:1051F00060931C0570931D0580931E0590931F05F9
:105200000895052E97FB1EF400940E94182957FD5F
:1052100007D00E94332907FC03D04EF40C941829C0
:1052200050954095309521953F4F4F4F5F4F0895D2
:1052300090958095709561957F4F8F4F9F4F089502
:105240000E945529A59F900DB49F900DA49F800D9D
:10525000911D11240895B7FF0C9420290E94202944
:10526000821B930B0895A1E21A2EAA1BBB1BFD0102
:105270000DC0AA1FBB1FEE1FFF1FA217B307E40735
:10528000F50720F0A21BB30BE40BF50B661F771F8D
:10529000881F991F1A9469F760957095809590956D
:1052A0009B01AC01BD01CF010895A29FB001B39F46
:1052B000C001A39F700D811D1124911DB29F700D1F
:1052C000811D1124911D08955058BB27AA270E94C3
:1052D0007C290C94EF2A0E94E12A38F00E94E82AE7
:1052E00020F039F49F3F19F426F40C94DE2A0EF4D2
:1052F000E095E7FB0C94D82AE92F0E94002B58F385
:10530000BA17620773078407950720F079F4A6F5AA
:105310000C94222B0EF4E0950B2EBA2FA02D0B012E
:10532000B90190010C01CA01A0011124FF27591BEA
:1053300099F0593F50F4503E68F11A16F040A22FF0
:10534000232F342F4427585FF3CF46953795279561
:10535000A795F0405395C9F77EF41F16BA0B620B60
:10536000730B840BBAF09150A1F0FF0FBB1F661FA7
:10537000771F881FC2F70EC0BA0F621F731F841FEA
:1053800048F4879577956795B795F7959E3F08F010
:10539000B0CF9395880F08F09927EE0F97958795D2
:1053A00008950E94B42A08F481E008950E94EA2931
:1053B0000C94EF2A0E94E82A58F00E94E12A40F05B
:1053C00029F45F3F29F00C94D82A51110C94232B17
:1053D0000C94DE2A0E94002B68F39923B1F3552325
:1053E00091F3951B550BBB27AA27621773078407F8
:1053F00038F09F5F5F4F220F331F441FAA1FA9F38E
:1054000035D00E2E3AF0E0E832D091505040E6957B
:10541000001CCAF72BD0FE2F29D0660F771F881FDC
:10542000BB1F261737074807AB07B0E809F0BB0BCF
:10543000802DBF01FF2793585F4F3AF09E3F5105E3
:1054400078F00C94D82A0C94232B5F3FE4F3983E19
:10545000D4F3869577956795B795F7959F5FC9F7CC
:10546000880F911D9695879597F90895E1E0660F4D
:10547000771F881FBB1F621773078407BA0720F0C6
:10548000621B730B840BBA0BEE1F88F7E09508952F
:105490000E94082B88F09F5798F0B92F9927B75191
:1054A000B0F0E1F0660F771F881F991F1AF0BA95C8
:1054B000C9F714C0B13091F00E94222BB1E00895D9
:1054C0000C94222B672F782F8827B85F39F0B93FCB
:1054D000CCF3869577956795B395D9F73EF490957B
:1054E0008095709561957F4F8F4F9F4F0895E894F9
:1054F00009C097FB3EF490958095709561957F4F1C
:105500008F4F9F4F9923A9F0F92F96E9BB279395C9
:10551000F695879577956795B795F111F8CFFAF4D9
:10552000BB0F11F460FF1BC06F5F7F4F8F4F9F4F0A
:1055300016C0882311F096E911C0772321F09EE868
:10554000872F762F05C0662371F096E8862F70E0CE
:1055500060E02AF09A95660F771F881FDAF7880FA8
:105560009695879597F90895990F0008550FAA0BFE
:10557000E0E8FEEF16161706E807F907C0F0121666
:105580001306E407F50798F0621B730B840B950B69
:1055900039F40A2661F0232B242B252B21F40895BE
:1055A0000A2609F4A140A6958FEF811D811D08955B
:1055B00097F99F6780E870E060E008959FEF80ECC6
:1055C000089500240A941616170618060906089569
:1055D00000240A9412161306140605060895092ECF
:1055E0000394000C11F4882352F0BB0F40F4BF2B3E
:1055F00011F460FF04C06F5F7F4F8F4F9F4F08957E
:1056000057FD9058440F551F59F05F3F71F0479573
:10561000880F97FB991F61F09F3F79F08795089558
:10562000121613061406551FF2CF4695F1DF08C077
:10563000161617061806991FF1CF86957105610594
:1056400008940895E894BB2766277727CB0197F93C
:1056500008950E94B42A08F48FEF08950E94412B08
:105660000C94EF2A0E94E12A38F00E94E82A20F0E8
:10567000952311F00C94D82A0C94DE2A11240C9452
:10568000232B0E94002B70F3959FC1F3950F50E0E0
:10569000551F629FF001729FBB27F00DB11D639FE4
:1056A000AA27F00DB11DAA1F649F6627B00DA11D8A
:1056B000661F829F2227B00DA11D621F739FB00D30
:1056C000A11D621F839FA00D611D221F749F3327A0
:1056D000A00D611D231F849F600D211D822F762F39
:1056E0006A2F11249F5750409AF0F1F088234AF016
:1056F000EE0FFF1FBB1F661F771F881F9150504082
:10570000A9F79E3F510580F00C94D82A0C94232BC6
:105710005F3FE4F3983ED4F3869577956795B79508
:10572000F795E7959F5FC1F7FE2B880F911D969522
:10573000879597F908950E94B42A880B990B0895CC
:1057400097FB072E16F4009407D077FD09D00E942E
:10575000B42B07FC05D03EF4909581959F4F08959A
:10576000709561957F4F0895AA1BBB1B51E107C03F
:10577000AA1FBB1FA617B70710F0A61BB70B881FE1
:10578000991F5A95A9F780959095BC01CD01089570
:10579000EE0FFF1F0590F491E02D099481E090E059
:0A57A000F8940C94D32BF894FFCF7B
:1057AA000105001E005F005F005F0008005F00B097
:1057BA000458020A00010003000100000000000072
:1057CA0000000000000000000000000000000000CF
:1057DA0000000000000000000000000000000000BF
:1057EA0000000000000000000000000000000000AF
:1057FA00000000000000000000008080800000001F
:10580A000000000000000000000000008080C0C00E
:10581A00000000000000000000000000000000007E
:10582A00000000000000000000000000000000006E
:10583A00000000000000000000000000000000005E
:10584A0000000000000000000000000000000080CE
:10585A00C0E0F0F8FCF8E0000000000000000000E2
:10586A0000000000000000008080808080008080AE
:10587A0000000000808080808000FFFFFF000000A1
:10588A00008080808000008080000080FFFF808090
:10589A0000808000808080800080800000000000FE
:1058AA00808000008C8E84000080F8F8F880000068
:1058BA000000000000000000000000F0F0F0F0F02E
:1058CA00F0F0F0F0F0F0F0E0E0C08000E0FCFEFF65
:1058DA00FFFF7FFFFFFFFFFF000000000000000046
:1058EA00000000000000FEFFC70101010183FFFF65
:1058FA0000007CFEC70101010183FFFFFF0038FEA3
:10590A00C78301010183C7FFFF000001FFFF0101F7
:10591A0000FFFF0701010100007FFF80000000FF78
:10592A00FF7F0000FFFFFF000001FFFFFF010000F3
:10593A000000000000000000000000030F3F7F7F0E
:10594A00FFFFFFFFFFFFFFE7C7C78F8F9FBFFFFF65
:10595A00C3C0F0FFFFFFFFFFFCFCFCFCFCFCFCFCEF
:10596A00F8F8F0F0E0C000010303030303010303A6
:10597A00000000000103030303010103010000000A
:10598A0001030303030101030300000003030000F2
:10599A0000030300000000000000010303030303E7
:1059AA0001000000010301000000030301000000E0
:1059BA00000000000000000000000000000080C09D
:1059CA00E0F0F9FFFFFFFFFF3F1F0F87C7F7FFFF59
:1059DA001F1F3DFCF8F8F8F87C7DFFFFFFFFFFFF73
:1059EA00FFFF7F3F0F07003030000000000000007B
:1059FA00000000000000000000000000000000FE9F
:105A0A00FEFC000000000000000000000000000092
:105A1A000000000000000000E0C0000000000000DC
:105A2A00000000000030300000000000000000000C
:105A3A00000000000000000000000000C0FEFFFFA0
:105A4A00FFFFFFFFFFFFFF7F7F3F1F0F071F7FFF44
:105A5A00FFF8F8FFFFFFFFFFFEF8E000000001007B
:105A6A0000000000000000FEFE000000FCFEFC0C2E
:105A7A0006060EFCF80000F0F81C0E0606060CFFDF
:105A8A00FFFF0000FEFE00000000FCFEFC00183CC8
:105A9A007E66E6CE84000006FFFF0606FCFEFC0CCE
:105AAA000606060000FEFE0000C0F8FC4E4646460A
:105ABA004E7C7840183C76E6CECC80000000000090
:105ACA0000000000000000000000000000000001CB
